:1000000012C0189518951895189518951895189563
:10001000B4C151C01895189518951895189518954C
:100020001895189518958FE58DBFC0E2E8EB4E2E18
:1000300084E08EBFD4E0F3E05F2EA89584B7082E4D
:10004000877F84BF88E1992781BD91BDEEEFF3E002
:10005000A0E6B0E088278D933197E9F7FCD16624BC
:100060008CE041D2EDD1BD9AC598E4E0FBE07DD2B1
:1000700082D2B898C09A80E08FBD86E08EBD83E0C2
:1000800083BF789479B7716079BF79B7746079BFAD
:10009000D7D18CE028D2CED1E8E1FBE0C5D1CED1DA
:1000A000E4E2FBE0C1D184EF91E074D283E083BF4E
:1000B000FFCFF894FFCF0F921F922F923F924F9253
:1000C0005F927F92AF92BF920F931F932F933F93B4
:1000D0004F935F936F937F938F939F93AF93BF9350
:1000E000CF93DF93EF93FF938FB78F93A4E6B0E0A6
:1000F00086D143EA52E060E070E0A4E6B0E00D9102
:100100001D912D913C91BAD309F01BC1882783BF63
:10011000A8E6B0E00C9111272227332740E050E0F9
:1001200061E070E02AD3A0E6B0E00D931D932D931B
:100130003D93A0E6B0E00D911D912D913C91ACE472
:10014000B0E04D915C916627772793D3A0E6B0E0AD
:100150000D931D932D933D9373D16CD1B0995AC0DB
:10016000E4E3FBE061D16AD1A0E6B0E00D911D911E
:100170002D913C9140E052E360E070E0FED2A0E6B9
:10018000B0E00D931D932D933D93ECEFFAE0ADD4C9
:10019000E0E6F0E0F2D31BD452D4EDE0F0E0A9E6C3
:1001A000B0E0D7D3E4E4FBE03FD1A0EAB3E0AF9303
:1001B000BF93E9E6F0E0E1D3FCD1112706E0BF915F
:1001C000AF910FD3E0EAF3E0A0EAB3E0BDD324D1CE
:1001D000E8E4FBE029D1ECE4FBE0C7D1CCD1E4E4D6
:1001E000FBE0C3D1A0EAB3E0AF93BF93E9E6F0E050
:1001F000C4D3DFD1112706E0BF91AF91F2D2E0EA7C
:10020000F3E0A0EAB3E0A0D3BAD1E8E4FBE0ADD1DB
:10021000B2D182C0EEE4FBE007D110D148EE53E04A
:1002200060E070E0A0E6B0E00D911D912D913C9151
:1002300025D30CF401C01DC0E4E4FBE0F5D0E0E6FA
:10024000F0E0A0EAB3E030D3E7D0ECE5FBE0ECD09F
:10025000ECE4FBE08AD18FD1E4E4FBE086D1E0E678
:10026000F0E0A0EAB3E020D38AD1E0E6FBE07DD164
:1002700082D148EE53E060E070E0A0E6B0E00D917E
:100280001D912D913C91FAD214F009F001C044C0A7
:10029000E0E0FBE02AD4E0E6F0E06FD398D3CFD3E0
:1002A000EDE0F0E0A9E6B0E054D3E4E4FBE0BCD03C
:1002B000A0EAB3E0AF93BF93E9E6F0E05ED379D173
:1002C000112703E0BF91AF918CD2E0EAF3E0A0EAFE
:1002D000B3E03AD3A1D0E4E6FBE0A6D0ECE4FBE047
:1002E00044D149D1E4E4FBE040D1A0EAB3E0AF93CC
:1002F000BF93E9E6F0E041D35CD1112703E0BF9161
:10030000AF916FD2E0EAF3E0A0EAB3E01DD337D1BA
:10031000EAE6FBE02AD12FD180E090E090934D00F7
:1003200080934C0080E08093680000E010E020E0C3
:1003300030E0A4E6B0E00D931D932D933C9383E051
:1003400083BF8F918FBFFF91EF91DF91CF91BF91CD
:10035000AF919F918F917F916F915F914F913F915D
:100360002F911F910F91BF90AF907F905F904F9012
:100370003F902F901F900F9018950F921F922F92E1
:100380003F924F925F927F92AF92BF920F931F93D3
:100390002F933F934F935F936F937F938F939F938D
:1003A000AF93BF93CF93DF93EF93FF938FB78F9369
:1003B000A8E6B0E08C918F5F8C9380E090E0909302
:1003C0004D0080934C008F918FBFFF91EF91DF9193
:1003D000CF91BF91AF919F918F917F916F915F91DD
:1003E0004F913F912F911F910F91BF90AF907F90B0
:1003F0005F904F903F902F901F900F9018950D9108
:100400001D912D913C910F5F1F4F2F4F3F4F3C93FC
:100410002E931E930E930895A0EAB3E08D91882346
:1004200011F05BD0FBCF0895CBD1802D11F055D0CA
:10043000FBCF089582E057D00BD007C080EC53C0AB
:1004400081E051D005D080E84EC080E84CD00895BE
:1004500083E099279FC08AEF90E09CD0A09AA19A50
:10046000A29AA39AA49AA59AAD9885E090E092D01A
:10047000AC98A898A998AA9AAB9AAC9AEF93FF93D4
:10048000E1E1F1E050D0FF91EF91AC9880D0AC9ACF
:10049000EF93FF93E1E1F1E046D0FF91EF91AC984B
:1004A00076D0AC9AEF93FF93E1E1F1E03CD0FF917D
:1004B000EF91AC986CD0AB98AC9AEF93FF93E1E1DD
:1004C000F1E031D0FF91EF91AC9861D088E20BD090
:1004D0008EE009D086E007D00895AD9A829505D0C8
:1004E00004D055D00895AD98F9CF859510F4AB9A06
:1004F00001C0AB98859510F4AA9A01C0AA98859579
:1005000010F4A99A01C0A998859510F4A89A01C081
:10051000A898AC9AEF93FF93E1E1F1E004D0FF914A
:10052000EF91AC9808953197F1F70895689462F8C7
:100530000895E89462F808958F939F938BE890E074
:100540000197F1F79F918F91089580952AE090E0AF
:10055000089410F0C59802C0C59A0000EDDFECDFEA
:10056000969587952A95A9F708952AD1802D11F09F
:10057000ECDFFBCF08958DE0E8DF8AE0E6CFA0EA6C
:10058000B3E08D91882311F0E0DFFBCF089581E087
:1005900090E000C0EF93FF93EE27E82BE92B31F0BA
:1005A000EDECFAE03197F1F70197D1F7FF91EF9178
:1005B00008958DE207FD8D938F2D881F802F881F52
:1005C0008F57082F6894F7F8802F87FF15C0809504
:1005D0008395082F80E38D938EE28D93802F815237
:1005E00028F080E38D9399279C93089544270A95DA
:1005F000802F09F192D01FC0805230F09EE49D936D
:1006000081E48D939D93EFCF4427DF92EF92FF9289
:100610000F938FE1801B11F0082F7FD085D09EE2D1
:100620009D930F91FF90EF90DF9044270395003248
:1006300009F4D7CF27D03F93EAEBF6E038E12F2D2E
:100640001E2D0D2DFF24EE24DD244427000F111F45
:10065000221F88F42F923F92B3D0102CB1D0202CBF
:10066000AFD0302CADD03197410DD21CE31CF01C23
:100670003F902F9001C0339631963A9539F73F91CC
:1006800007D0B3CFDD0CEE1CFF1C0A95D9F70895F7
:10069000002719E058D08F93802B11F0039501C0EB
:1006A0008F911A95B9F7802F882309F49ACF8F91EB
:1006B000805D8D930A95D9F796CF0065CD1D80B2E8
:1006C000E60E40597307A0ACB90350D6DC01286B85
:1006D000EE0094357700CA9A3B0065CD1D00B2E666
:1006E0000E0059730700ACB90300D6DC01006BEEB5
:1006F0000000357700009A3B0000CD1D0000E60E9B
:10070000000073070000B9030000DC010000EE00E8
:100710000000770000003B000000F694E794D794B7
:1007200047950A95D1F7089500270DD08F9303952B
:100730008F2D8E298D29842BC1F78F91805D8D930C
:100740000A95D9F750CF1F930F93002710E2440F5B
:10075000DD1CEE1CFF1C001F802F9AE0890B10F09F
:10076000082F43951A9599F7802F0F911F9108959F
:10077000019111912191308108950F921F922F9232
:10078000C801D901489F80014A9F90014B9F202CAE
:10079000499F100D211D321D5A9F202C589F100D6E
:1007A000211D321D599F200D311D689F200D311DC7
:1007B000699F300D789F300D2F901F900F900895F6
:1007C000C89531960020089599278D919395882397
:1007D000E1F7939511968C9311978E919A95D1F795
:1007E0000895EA2FFB2F00244C918D9103948E32B3
:1007F000E1F711248D9113948823E1F71A941016D0
:1008000040F41197202F2119239580E38D932A9589
:10081000E9F7113039F59927AE2FBF2FA00DB91F79
:10082000A00FB91F8C919C93853308F421C031E04F
:100830008E918E32E9F38D3241F0830F8A3319F4B1
:1008400080E331E001C033278C93AE1789F733235F
:1008500041F0AE2FBF2FB8DF81E34D3209F431965E
:10086000808308958827E00DF81FE00FF81F80832C
:100870000895040F151F261F371F08950417150725
:10088000260737070895000F111F221F331F0895F1
:1008900000951095209530950F5F1F4F2F4F3F4FBC
:1008A0000895019110810DC063DF0DC061DF10C09C
:1008B0000191108117FF05C03FEF2FEF04C00081A9
:1008C00011272227332737FF03C0E2DF8DE28D9304
:1008D000CF92DF92EF92AA24BB24CC24DD24EE2415
:1008E00040E2EAE0FF2755E093E38081890F87FD2E
:1008F0009F7083FD907F891B81935A95A9F7C3DF71
:10090000AA1CBB1CCC1CDD1CEE1C4A9551F7E894BC
:10091000EFE0FF2782910BD0EB30E0F71EF06894F8
:100920008A2D09D04D93EF90DF90CF900895982FA6
:10093000829501D0892F8F70805D26F0803309F475
:10094000089568948D93089581918D938823E1F79C
:10095000089594E081918D939A95E1F70895B7FEFB
:10096000089590E8B91611F4D0FE08959FEFD91AB2
:10097000E90AF90A09F403950895D190E190F190FC
:100980000191089521913191419151910895502FF4
:100990002D2D3E2D4F2D612F0895652F90E8440F8A
:1009A000551F5927990F47956078102F90E8FF0C35
:1009B000001F0927990FF794107800380895FF0C4D
:1009C00090E89027110F9795F794092F0895102F0D
:1009D000BD2CDE2CEF2CF02E11234AF4B094D094D1
:1009E000E094F0949FEFB91AD90AE90AF90A0EE1E6
:1009F000FF2039F4FE2CED2CDB2CBB240850C2F771
:100A000052C032F00A95BB0CDD1CEE1CFF1CF9CF66
:100A1000A6DFD5CF2DEC3CEC4CEC5DE366270FC098
:100A2000ACDFB5DFDD24EE2490E8F92E0FE307C03C
:100A3000A9DF05C02227332740E251E4662755236A
:100A400051F1002381F1A9DF71F1162700585058A8
:100A50000894050B18F407FD03C025C007FD23C04B
:100A6000469537952795F694E794D79422D0FF20A2
:100A70002AF0DD0CEE1CFF1C015073F09D2D9695A5
:100A800048F0DD203AF4EE202AF491E0D90E9927BF
:100A9000E91EF91E94CF07C09FE7092FF92A9FEF9F
:100AA000D92EE92E0895DD24EE24FF2400271127F6
:100AB00008959F929924AA24BB2488E1D216E306C4
:100AC000F40628F0D21AE30AF40A089401C08894C4
:100AD000991CAA1CBB1CDD0CEE1CFF1C8A9571F72F
:100AE000D92CEA2CFB2C9F9008956ADE202D68DE1D
:100AF000302D66DE402D64DE502D089500247449AB
:100B000000007A4473657269616C206F757470754A
:100B10007420746573740000202020204469676984
:100B200074616C004672657175656E6379204D6500
:100B300074657200486967683A20314D487A2D31F2
:100B400047487A00463D20004D487A007E004C6FB1
:100B5000773A2031487A2D314D487A0020487A0082
:0E0B6000487A0000204B487A00004B487A008B
:00000001FF
